:0330000002300695
:03305F0002300339
:033003000231E0B7
:10306200438E0C9000002210980280FBAE997F00E4
:103072008E828F8322AF83E582900001F0EFA3F06E
:103082003099FD900001E0FEA3E0FF8E99C2998E77
:10309200828F8322900003E4F0A3F0900005F09069
:1030A2000006F0900006E0FFBF0D02805112306969
:1030B200AE82AF83900006EEF0BE080E90000812BA
:1030C2003077900005E014F080D9EE24C640D4BEDB
:1030D200300040CF8E057F008D828F83C006123074
:1030E20077D006900005E0FF2407F582E43400F56E
:1030F20083EE24D0FEF0900005EF04F080A590004E
:1031020005E0FF7D007E008F037C00C3ED9BEE6433
:10311200808CF063F08095F05059900003E0FBA39F
:10312200E0FC90000CEBF0ECA3F090000AC007C0AA
:1031320006C005123385AB82AC83D005D006D0071A
:10314200900003EBF0ECA3F0ED2407F582EE3400DF
:10315200F583E0FC7B00900003E0F9A3E0FAEC29A0
:10316200F9EB3AFA900003E9F0EAA3F00DBD0097FB
:103172000E8094900003E0FEA3E0FFC007C006C0EB
:1031820006C00774C1C0E07433C0E012327CE5812E
:1031920024FCF581D006D0078E828F8322758F1F83
:1031A20043A880438920439850438840758DFDD2BF
:1031B200992275D90275E90075F90075EBAB75FBBB
:1031C200AB75D84075DB422275D90275E90075F9F5
:1031D2000075EBFF75FBFF75D84075DB00221231DD
:1031E2009F74D7C0E07433C0E012327C1581158120
:1031F200742BC0E07434C0E012327C1581158174E6
:103202003CC0E07434C0E012327C15811581744EEA
:10321200C0E07434C0E012327C1581158112309600
:10322200AE82AF8390000EEEF0EFA3F08E828F831A
:1032320012307790000EE0FEA3E0FFBE0117BF0040
:1032420014748AC0E07434C0E012327C1581158196
:103252001231B480B9BE0217BF00147495C0E07475
:1032620034C0E012327C158115811231CA809FBEB2
:0A3272000306BF00030231E380945D
:1033C1000A0D20656E746572656420696E7075748E
:1033D1003A25640A0D000A0D2A2A2A2A2A2A2A2AAB
:1033E1002A2A2A2A2A2A2A2A2A2A2A2A2A2A2A2A3C
:1033F1002A2A2A2A2A2A2A2A2A2A2A2A2A2A4D45EE
:103401004E552A2A2A2A2A2A2A2A2A2A2A2A2A2ACC
:103411002A2A2A2A2A2A2A2A2A2A2A2A2A2A2A2A0B
:103421002A2A2A2A2A2A2A2A0D000A0D20312E2088
:1034310052756E2050574D200A0D000A0D20322E74
:103441002053746F702050574D200A0D000A0D2033
:10345100456E7465722061206E756D6265722066BD
:10346100726F6D206D656E75206F7220707265735D
:1034710073203320746F20736565206D656E752030
:10348100616761696E200A0D000A0D50574D204F8A
:103491004E0A0D000A0D50574D204F46460A0D00A9
:0234A100000029
:06303500E478FFF6D8FD6F
:103013007902E94400601B7A019034A1780E75A00F
:1030230000E493F2A308B8000205A0D9F4DAF2751C
:02303300A0FFFC
:10327C00C008858108E50824FDF886831886821825
:10328C00E493A324DB600C2425600512336A80F0E0
:10329C00023382D2D5E493A3C083C082B473148664
:1032AC00F0188683188682181233A56054A3123343
:1032BC006A80F5B4630818E61812336A8043B46464
:1032CC0017E630E74618E6F42401F608E6F4340075
:1032DC00F6742D12336A8033B4782D868318868267
:1032EC0018E412335BE58312335AE58312335BE542
:1032FC008212335AE58212335B30D50574301233A7
:10330C006AD082D08302328CB475F6E6FA18E6F9EC
:10331C00187C107D27123345FF7CE87D0312334562
:10332C00C4F5837C647D001233454283E975F00A51
:10333C0084C445F0F582EF80A97B000BC3E99CF9AE
:10334C00EA9DFA50F61BE92CF9EA3DFAEB22C4543B
:10335C000F700320D51FC2D52490D43440D4C08321
:10336C00C082C0F0F582E8C0E0123077D0E0F8D02F
:10337C00F0D082D08322D00822AA83AB828BF0902B
:10338C00000CE0A4F8A9F08AF0E0A429F98BF0A3D2
:09339C00E0A429F58388822222B5
:10303B007800E84400600A790175A000E4F309D830
:10304B00FC780DE84400600C7901900001E4F0A3DA
:04305B00D8FCD9FACA
:0D300600758108123062E58260030230031C
:1033A50020F71430F6148883A88220F507E6A88351
:0C33B50075830022E280F7E49322E022FE
:00000001FF
