:023EF70088132E
:03200000022006B5
:03205F0002200359
:032003000220694F
:20206200438E0C900000229013C7E4F0A3F09013C9F0A3F0122D30AE82AF83C007C006129F
:2020820031C4AC82AD83D006D007EC4D701FC007C006C005C00474F9C0E0743EC0E01230BF
:2020A2007F15811581D004D005D006D0078E828F83C007C006C005C0041231C4AA82AB8384
:2020C200D004D005D006D007901389EAF0EBA3F0EA4B7056C002C003C007C006C005C0048E
:2020E200C003C0027427C0E0743FC0E07480C0E01234AF158115811581D002D003D004D037
:20210200058C008D017B00888289838BF0C005C004C003C002122F28D002D003D004D005CD
:20212200D006D007D003D0028027C007C006C005C004C003C0027451C0E0743FC0E012300F
:202142007F15811581D002D003D004D005D006D007EA4B7003022076EC4D70030220768CC7
:20216200008D018A138B14C007C006C005C004C001C000C000C001748BC0E0743FC0E01277
:20218200307FE58124FCF581C013C01474AEC0E0743FC0E012307FE58124FCF581D000D079
:2021A20001D004D005D006D007E4F508F509750A02F50BF50CF50DC000C001C007C006C095
:2021C20005C004C001C00074D1C0E0743FC0E012307F1581158174DFC0E0743FC0E0123006
:2021E2007F158115817427C0E07440C0E012307F15811581746AC0E07440C0E012307F150E
:202202008115817488C0E07440C0E012307F1581158174ADC0E07440C0E012307F15811547
:202222008174E0C0E07440C0E012307F158115817417C0E07441C0E012307F15811581D0A9
:2022420000D001122DE3A882A983880E9013C7E02401F0A3E03400F0850E0F751000850FDC
:2022620082851083C001C000122DF1D000D001D004D005D006D007C3745A950ED001D00045
:20228200403F74BF250E5039C000C0018E008F01C3E50898E50999D001D0005024E5082C32
:2022A200F582E5093DF583E50EF00508E4B5080205099013C9E02401F0A3E03400F0022136
:2022C200B98E118F12E511B5085BE512B50956742BB50E02804F742DB50E028048743FB521
:2022E2000E028041743DB50E02803A7440B50E028033850F82851083C007C006C005C0046B
:20230200C001C000122DF1742CC0E07441C0E012307F15811581D000D001D004D005D00668
:20232200D0070221B9742BB50E0280030224A2C000C001C007C006C005C004122E10A88228
:20234200A983880F8910C001C000C00FC0107442C0E07441C0E07480C0E01234AFE5812441
:20236200FBF581D000D001D004D005D006D007C3E50F9414E51064809480D001D0004010B6
:202382007490950F74818510F063F08095F05009901407E4F0A3F0800A901407E50FF0E558
:2023A20010A3F0C000C001901407E0F50FA3E0F510850F82851083C007C006C005C004C0DC
:2023C20001C0001231C4D000D001D004D005D006D007E50C250CF8E50D33F9E8248BF582F6
:2023E200E93413F583E0F8A3E048D001D0007045C000C0017402250CF8E4350DF9C007C074
:2024020006C005C004C001C000C000C001744FC0E07441C0E07480C0E01234AFE58124FB63
:20242200F581D000D001D004D005D006D007D001D0000221B9C000C0017402250CF8E43577
:202442000DF9C007C006C005C004C001C000C000C001747BC0E07441C0E012307FE581242D
:20246200FCF581D000D001D004D005D006D007E50A250AF8E50B33F9E824CBF582E9341341
:20248200F583E50FF0E510A3F0050AE4B50A02050B050CE4B50C02050DD001D0000221B94B
:2024A200742DB50E02800302264AC000C001C007C006C005C004122E10A882A983D004D0DE
:2024C20005D006D007880F89107401B50F0614B510028006D001D0008048901389E0F8A368
:2024E200E0F97B00888289838BF0C007C006C005C004C001C000122F2874ABC0E07441C0C1
:20250200E012307F15811581D000D001D004D005D006D007901389E4F0A3F0D001D00002BF
:2025220021B9E50F45107030C007C006C005C004C001C00074D8C0E07441C0E07480C0E06A
:202542001234AF158115811581D000D001D004D005D006D0070221B9C37401950F7480859A
:2025620010F063F08095F0400302261A7402250CFAE4350DFBC3E50F9AE51064808BF063B2
:20258200F08095F0400302261AC000C001AB0F1B1BC2D575F002EB30E704B2D5F404A430F7
:2025A200D50AF42401C5F0F43400C5F0248BF515741335F0F516851582851683E0F8A3E08A
:2025C200F97B00888289838BF0C007C006C005C004C001C000122F28E50F24FEFAE51034BB
:2025E200FFFBC002C00374F4C0E07441C0E07480C0E01234AFE58124FBF581D000D001D008
:2026020004D005D006D007851582851683E4F0A3F0D001D0000221B9C007C006C005C004FE
:20262200C001C0007408C0E07442C0E07480C0E01234AF158115811581D000D001D004D015
:2026420005D006D0070221B9743DB50E028003022702C007C006C005C004C001C000742992
:20266200C0E07442C0E012307F158115817444C0E07442C0E07480C0E01234AF1581158112
:202682001581D000D001D004D005D006D0079013C9E0FAA3E0FBE4F515F516C3E5159AE5B2
:2026A200169B40030221B9C000C001E5152CF582E5163DF583E0F87900C007C006C005C017
:2026C20004C003C002C001C000C000C001C000C001747DC0E07442C0E012307FE58124FAC0
:2026E200F581D000D001D002D003D004D005D006D0070515E4B515020516D001D000809B25
:202702007440B50E028003022829C000C0018C028D038B017B008A8289838BF0C007C006A2
:20272200C005C004C001C000122F287486C0E07442C0E012307F15811581D000D001901303
:2027420089E0FAA3E0F97B008A8289838BF0C001C000122F28749DC0E07442C0E012307FD8
:2027620015811581D000D001D004D005D006D007850C15850D167402250CF50FE4350DF520
:2027820010751702751800D001D000AA0FAB10C3E5179AE5189B5062C000C001E51525159F
:2027A200FAE51633FBEA248BF582EB3413F583E0FAA3E0F97B008A8289838BF0C007C00649
:2027C200C005C004C001C000122F28C015C01674B4C0E07442C0E012307FE58124FCF581FE
:2027E200D000D001D004D005D006D0070517E4B517020518D001D0008091C007C006C005F1
:20280200C004C001C00074CCC0E07442C0E012307F15811581122069D000D001D004D00569
:20282200D006D0070221B9743FB50E028003022D06C007C006C005C004C001C0007408C00A
:20284200E07443C0E012307F15811581D000D001C001C000C000C001741AC0E07443C0E02A
:2028620012307FE58124FCF581D000D00188028903E5112AFAE5123BFBC001C000C002C098
:2028820003743AC0E07443C0E012307FE58124FCF581D000D001D004D005D006D007C00713
:2028A200C006C005C004C001C000C006C0077455C0E07443C0E012307FE58124FCF581D06C
:2028C20000D0019013C9E0FAA3E0FBC003C002C001C000C002C003746CC0E07443C0E012ED
:2028E200307FE58124FCF581D000D001D002D003E511C39AFAE5129BFBC001C000C002C008
:2029020003749DC0E07443C0E012307FE58124FCF581D000D001D004D005D006D007901353
:2029220089E0F5F0A3E045F070030229F5C007C006C005C004C001C00074C7C0E07443C013
:20294200E012307F15811581C013C01474CDC0E07443C0E012307FE58124FCF581AA13ABA4
:2029620014E5112AFAE5123BFBC002C00374EDC0E07443C0E012307FE58124FCF581D00090
:20298200D001D004D005D006D007C007C006C005C004C001C000C006C0077408C0E0744416
:2029A200C0E012307FE58124FCF581741FC0E07444C0E012307F15811581D000D001D004CB
:2029C200D005D006D007C007C006C005C004C001C000C006C007744FC0E07444C0E0123052
:2029E2007FE58124FCF581D000D001D004D005D006D0077402250CFAE4350DFB751702759E
:202A02001800C3EA9517EB64808518F063F08095F05003022B4CC000C001E5172517F8E52D
:202A22001833F9E8248BF582E93413F583E0F8A3E048D001D0007003022B41C000C001C034
:202A420007C006C005C004C003C002C001C00074C7C0E07443C0E012307F15811581C01326
:202A6200C014C017C0187479C0E07444C0E012307FE58124FAF581D000D001A813A914E533
:202A82001128F8E51239F9C001C000C000C001C017C018749AC0E07444C0E012307FE581FC
:202AA20024FAF581D000D001D002D003D004D005D006D007C007C006C005C004C003C00249
:202AC200C001C000C006C007C017C01874B6C0E07444C0E012307FE58124FAF581C017C0C3
:202AE2001874CEC0E07444C0E012307FE58124FCF581D000D001D002D003D004D005D00600
:202B0200D007C007C006C005C004C003C002C001C000C006C007C017C01874FFC0E07444B9
:202B2200C0E012307FE58124FAF581D000D001D002D003D004D005D006D007D001D00005F6
:202B420017E4B517020518022A04C007C006C005C004C001C000742AC0E07445C0E01230ED
:202B62007F15811581D000D0019013C9E0FAA3E0FBC003C002C001C000C002C0037446C03E
:202B8200E07445C0E012307FE58124FCF5819013C7E0C0E0A3E0C0E0745BC0E07445C0E068
:202BA20012307FE58124FCF581D000D001D002D003D004D005D006D007E4F517F518C000FD
:202BC200C001A817A918C3E89AE99BD001D0004003022CCFC000C001E5172CF515E5183D1B
:202BE200F516851582851683E0F8790088828983C007C006C005C004C003C002C001C0000B
:202C0200122DF19014277420F0E4A3F085178285188312334DE5828583F0D000D001D0021A
:202C2200D003D004D005D006D007D001D00045F06049C000C001851582851683E0F87900DE
:202C4200C007C006C005C004C003C002C001C000C000C001747CC0E07445C0E012307FE546
:202C62008124FCF581D000D001D002D003D004D005D006D007D001D0008047C000C0018531
:202C82001582851683E0F87900C007C006C005C004C003C002C001C000C000C001747FC0DC
:202CA200E07445C0E012307FE58124FCF581D000D001D002D003D004D005D006D007D001AF
:202CC200D0000517E4B517020518022BC09013C7E4F0A3F09013C9F0A3F0C007C006C00538
:202CE200C004C001C0007484C0E07445C0E012307F15811581D000D001D004D005D006D0BF
:202D0200070221B9C007C006C005C004C001C000749DC0E07445C0E012307F15811581D070
:202D220000D001D004D005D006D0070221B974C4C0E07445C0E012307F1581158174D2C06A
:202D4200E07445C0E012307F15811581122E10AE82AF839014277410F0E4A3F08E828F83C1
:202D6200C007C00612334DAC82AD83D006D007C007C006C005C004C006C0077411C0E074EB
:202D820046C0E012307FE58124FCF581D004D005D006D007EC4D7032C3EE9420EF64809491
:202DA20080402774C09E74928FF063F08095F04019C007C0067424C0E07446C0E012307F42
:202DC20015811581D006D00780127432C0E07446C0E012307F15811581022D4E8E828F835A
:202DE2002210980280FBAE997F008E828F8322AF83E582901409F0EFA3F03099FD90140955
:202E0200E0FEA3E0FF8E99C2998E828F832290140BE4F0A3F090140DF090140EF07417C0E6
:202E2200E07441C0E012307F1581158190140EE0FFBF0D028051122DE3AE82AF8390140E08
:202E4200EEF0BE080E900008122DF190140DE014F080D9EE24C640D4BE300040CF8E057F0D
:202E6200008D828F83C006122DF1D00690140DE0FF240FF582E43414F583EE24D0FEF09025
:202E8200140DEF04F080A590140DE0FF7D007E008F037C00C3ED9BEE64808CF063F080956D
:202EA200F0505990140BE0FBA3E0FC901425EBF0ECA3F090000AC007C006C00512332DAB42
:202EC20082AC83D005D006D00790140BEBF0ECA3F0ED240FF582EE3414F583E0FC7B009088
:202EE200140BE0F9A3E0FAEC29F9EB3AFA90140BE9F0EAA3F00DBD00970E809490140BE017
:202F0200FEA3E0FFC007C006C006C007744DC0E07446C0E012307FE58124FCF581D006D0F7
:062F2200078E828F83225E
:203EF9006D656D6F727920696E73756666696369656E742E206275666665722030206D61E3
:203F19006C6C6F63206661696C65640A0D006275666665722031206D616C6C6F63206661F8
:203F3900696C65642E206672656520616C6C206D616C6C6F630A0D004D656D6F72792061D8
:203F59006C6C6F6361746564207375636365737366756C6C7920666F7220627566666572BA
:203F7900203020616E642062756666657220310A0D0062756666657220302073746172746B
:203F99007320617420616464726573733A20307825780A0D00627566666572203120737412
:203FB9006172747320617420616464726573733A20307825780A0D000A0D204F5054494FBB
:203FD9004E53200A0D00596F752063616E20656E7465722073746F72616765206368617250
:203FF9006163746572732066726F6D2027412720746F20275A2720746F2073746F72652068
:20401900696E2062756666657220300A0D005072657373202B20746F2063726561746520A0
:2040390061206E657720627566666572206F662073697A65206265747765656E2033322083
:20405900616E6420343830302062797465730A0D005072657373202D20746F2064656C65B3
:2040790074652061206275666665722E0A0D005072657373203F20746F2067656E657261ED
:20409900746520612068656170207265706F72742E0A0D005072657373203D20746F2064FD
:2040B9006973706C61792063757272656E7420636F6E74656E7473206F6620627566666587
:2040D9007220302E0A0D005072657373204020746F206672656520616C6C2062756666650D
:2040F900727320616E642073746172742070726F6772616D20616761696E2E0A0D000A0D8D
:2041190020656E7465722074686520696E7075740A0D000A0D4275666665722030206973C3
:204139002066756C6C2E0A0D00696E7075745F6E756D3D2564000A0D206D656D6F727920B9
:20415900616C6C6F636174696F6E206661696C656420666F72206275666665722025640AE7
:204179000D000A0D206D656D6F727920616C6C6F636174696F6E207375636365737366750F
:204199006C20666F72206275666665722025640A0D000A0D204275666665722031206973FB
:2041B9002064656C6574656420616E64206D656D6F72792069732066726565640A0D000AA0
:2041D9000D2043616E6E6F742064656C6574652062756666657220300A0D000A0D4672656E
:2041F9006564206275666665725F25640A0D000A0D20656E74657220612076616C6964201E
:20421900627566666572206E756D6265720A0D000A0D20636F6E74656E7473206F6620622F
:2042390075666665722030200A0D000A0D2073746F726167652063686172616374657220AD
:204259002D2D206974732068657861646563696D616C20726570726573656E746174696F41
:204279006E0A0D0025632D2D25780A0D000A0D20627566666572203020697320667265654B
:20429900640A0D000A0D2062756666657220312069732066726565640A0D000A0D20627541
:2042B900666665722025642069732066726565640A0D000A0D20616C6C2062756666657256
:2042D90073206172652066726565642E20506C656173652073746172742066726F6D207476
:2042F900686520626567696E6E696E670A0D000A0D2048454150205245504F5254200A0D68
:20431900000A0D20427566666572203020737461727473206174203D2030782578200A0DF4
:20433900000A0D20427566666572203020656E6473206174203D7825780A0D000A0D2042C2
:20435900756666657220302073697A65203D25640A0D000A0D206E756D626572206F66202F
:2043790073746F72616765206368617261637465727320696E2062756666657220303D25AC
:20439900640A0D000A0D206E756D626572206F6620667265652073706163657320696E205C
:2043B90062756666657220303D25640A0D000A0D200A0D000A0D20427566666572203120ED
:2043D900737461727473206174203D2030782578200A0D000A0D2042756666657220312033
:2043F900656E6473206174203D7825780A0D000A0D2042756666657220312073697A65209F
:204419003D25640A0D000A0D206E756D626572206F662073746F72616765206368617261BD
:20443900637465727320696E2062756666657220313D300A0D000A0D206E756D62657220FC
:204459006F6620667265652073706163657320696E2062756666657220313D25640A0D004E
:204479000A0D2042756666657220256420737461727473206174203D2030782578200A0D3A
:20449900000A0D2042756666657220256420656E6473206174203D7825780A0D000A0D204A
:2044B9004275666665722025642073697A65203D25640A0D000A0D206E756D626572206FB9
:2044D900662073746F72616765206368617261637465727320696E20627566666572202532
:2044F900643D300A0D000A0D206E756D626572206F6620667265652073706163657320691C
:204519006E206275666665722025643D25640A0D000A0D2063686172616374657273206914
:204539006E2062756666657220300A0D000A0D2073746F7265642063686172733D25640A2A
:204559000D000A0D20746F74616C206368617261637465727320656E74657265643D2564CD
:204579000A0D002563000A0D2563000A0D2068656170207265706F727420697320646F6EF6
:20459900650A0D000A0D20696E76616C69642063686172616374657220696E7075742E74A9
:2045B900727920616761696E0A0D000A0D2057454C434F4D45200A0D00456E746572202008
:2045D90061206E756D626572206265747765656E20333220616E6420343830302077686982
:2045F900636820697320646976697369626C652062792031360A0D0020696E707574206E89
:20461900756D6265723A25640A0D0076616C696420696E7075740A0D00496E56616C69646E
:2046390020696E7075742E2054727920616761696E0A0D000A0D20656E74657265642069A6
:0A4659006E7075743A25640A0D00B6
:202F2800AFF0AE83E582901414F0EEA3F0EFA3F0901414E0FDA3E0FEA3E0901414E0F5F091
:202F4800A3E045F0700122901419E4F0A3F090141DE0FBA3E0FC901417EBF0ECA3F0901426
:202F68001B741DF07414A3F0901417E0FBA3E0FC4B60418B018C02C003C0048D008E04C30E
:202F8800E998EA9CD004D003502A901419EBF0ECA3F074022BFBE43CFC90141BEBF0ECA309
:202FA800F08B828C83E0FBA3E0FC901417EBF0ECA3F080B4901417E0FEA3E0FF901414E0A7
:202FC800FBA3E0FCA3E0EB24FEFBEC34FFFC74022BFAE43CFD8A828D83EEF0EFA3F09014F1
:202FE8001BE0F8A3E0F988828983EBF0ECA3F08B828C83E0F8A3E0F9EEB50033EFB5012FD0
:2030080088828983A3A3E0FEA3E0FF8A828D83EEF0EFA3F08B828C83E0FEA3E0FF8E828F55
:2030280083E0FEA3E0FF8B828C83EEF0EFA3F0901419E0FEA3E0FF4E603C8E828F83E0F828
:20304800A3E0F9E8B5032FE9B5042B8B828C83E0FBA3E0FC8E828F83EBF0ECA3F074022EBA
:17306800FEE43FFF8A828D83E0FAA3E0FD8E828F83EAF0EDA3F0221D
:06203500E478FFF6D8FD7F
:202013007900E94400601B7A0090466E786775A014E493F2A308B8000205A0D9F4DAF27545
:02203300A0FF0C
:20307F00C01B85811BE51B24FDF8868318868218E493A324DB600C2425600512316D80F088
:20309F00023185D2D5E493A3C083C082B4731486F018868318868218123EDB6054A3123144
:2030BF006D80F5B4630818E61812316D8043B46417E630E74618E6F42401F608E6F43400D2
:2030DF00F6742D12316D8033B4782D868318868218E412315EE58312315DE58312315EE5C2
:2030FF008212315DE58212315E30D505743012316DD082D08302308FB475F6E6FA18E6F9CD
:20311F00187C107D27123148FF7CE87D03123148C4F5837C647D001231484283E975F00A0E
:20313F0084C445F0F582EF80A97B000BC3E99CF9EA9DFA50F61BE92CF9EA3DFAEB22C45467
:20315F000F700320D51FC2D52490D43440D4C083C082C0F0F582E8C0E0122DF1D0E0F8D077
:09317F00F0D082D08322D01B2283
:2031880090141D7401F07400A3F0903EF7E493FE740193FF1EBEFF011FEE2401FEEF34008A
:2031A800FF900001EEF0EFA3F090141DE0FEA3E0FF8E828F83A3A3E4F0A3F022AF83E5826C
:2031C80090141FF0EFA3F090141DE0F5F0A3E045F0700312318890141FE0FEA3E0FF4E6065
:2031E8000E74022EFCE43FFDC3EC9EED9F50049000002290141F74022EF0E43FA3F0901469
:203208001FE0FEA3E0FFC3EE9404EF9400500990141F7404F0E4A3F090141DE0FEA3E0FF3F
:20322800901421EEF0EFA3F0901423741DF07414A3F0901421E0FEA3E0FF4E7003023329BA
:203248008E828F83E0FCA3E0FD8C028D038E008F01EAC398FAEB99FB8A008B0190141FE035
:20326800F519A3E0F51AC3E89519E9951A500302330674042519F8E4351AF9C3EA98EB9984
:20328800404C8E028F03E5192AFAE51A3BFB8A828B83ECF0EDA3F074022AFCE43BFD8E82E3
:2032A8008F83A3A3E0F8A3E0F98C828D83E8F0E9A3F0901423E0FCA3E0FD8C828D83EAF0CD
:2032C800EBA3F08E828F83EAF0EBA3F0801C901423E0FCA3E0FD8E828F83A3A3E0FAA3E06A
:2032E800FB8C828D83EAF0EBA3F0901421E0FCA3E0FD74022CFCE43DFD8C828D83227402C2
:203308002EFEE43FFF901423EEF0EFA3F08E828F83E0FEA3E0FF901421EEF0EFA3F0023255
:053328003A90000022B4
:20332D00AA83AB828BF0901425E0A4F8A9F08AF0E0A429F98BF0A3E0A429F583888222221C
:20334D00AF83E582901429F0EFA3F0901429E0FEA3E0FF30E709C3E49EFCE49FFD80048E68
:20336D00048F05901427E0FEA3E0FF30E709C3E49EFAE49FFB80048E028F0390142BEAF051
:20338D00EBA3F08C828D831233B5AE82AF83901429E0A3E030E70CC3E49EFCE49FFD8C8206
:0833AD008D83228E828F8322A2
:2033B500AF83E58290142DF0EFA3F090142FE4F090142DE0FEA3E0FF7D0090142BE0FBA37A
:2033D500E0FC235401FA7036EB2BFBEC33FC90142BEBF0ECA3F090142BE0FBA3E0FCC3EEB5
:2033F5009BEF9C5011ECC313CB13CBFC90142BEBF0ECA3F080080D90142FEDF080BC90147C
:203415002FE0FF90142DE0FDA3E0FE90142BE0FBA3E0FCC3ED9BEE9C400B90142DEDC39BF5
:20343500F0EE9CA3F090142BE0FDA3E0C313CD13CDFE90142BEDF0EEA3F08F061FEE70C3B8
:0C34550090142DE0FEA3E08E82F583228F
:20203B007800E84400600A790175A000E4F309D8FC7866E84414600C7915900001E4F0A314
:04205B00D8FCD9FADA
:20346100C01B85811B7E008E83122DF1D01B22AFF0AE83E582901431F0EEA3F0EFA3F090F4
:203481001431E0FDA3E0FEA3E0FF901430E0FC901445E4F0A3F0A3F0901448EDF0EEA3F029
:2034A100EFA3F090144BECF09034610235B5C01BE581F51B24FBFF901445E4F0A3F0A3F05B
:2034C100E51B24FBF8901448E6F008E6A3F008E6A3F090144BEFF09034611235B5D01B2214
:2034E100E582901441F0E0FF901437E0C0E0A3E0C0E0A3E0C0E01234FC800D901435E0C0C7
:20350100E0A3E0C0E08F822215811581158190143FE02401F0A3E03400F022E582901442C4
:20352100F0E02430FF24C6500D74072FFF901434E060034307208F820234E1E5829014437C
:20354100F0E0FFC4540FF582C00712351CD00753070F8F8202351CE582901444F090143A12
:20356100E0FCA3E0FDA3E0FEA3E0FF90143EE0FB901444E0FA79208B00E828F526EF2354B7
:20358100014526FBEC2CFCED33FDEE33FEEF33FFC3EB9A4007EBC39AFB43040119E970D7EF
:2035A10090143AECF0EDA3F0EEA3F0EFA3F090143EEBF022AF83E58290144CF0EFA3F09063
:2035C100144CE0FEA3E0FF901435EEF0EFA3F0901445E0FDA3E0FEA3E0FF901437EDF0EE82
:2035E100A3F0EFA3F090143FE4F0A3F0901448E0FDA3E0FEA3E0FF8D828E838FF0123EDBD5
:20360100FC90144874012DF0E43EA3F0EFA3F0EC7003023EB7BC25028003023EAF90144E5B
:20362100E4F090144FF0901450F0901451F0901452F0901453F0901454F0901455F09014C7
:2036410057F0901458F0A3F090145A14F0A3F0901448E0FDA3E0FEA3E0FF8D828E838FF0A3
:20366100123EDBFBA3AD82AE83901448EDF0EEA3F0EFA3F090145EEBF0BB25088B8212343C
:20368100E10235EDBB3000500302374EEB24C6500302374E90145AE0F51CA3E0F51D74FFB9
:2036A100B51C63B51D60C005C006C007901458E0FAA3E0FF901425EAF0EFA3F090000AC07A
:2036C10005C00312332DAE82AF83D003D0058B027D00EA2EFEED3FFFEE24D0FEEF34FFFF59
:2036E100901458EEF0EFA3F0D007D006D005901458E0F5F0A3E045F0600302365B90144F89
:203701007401F002365BC005C006C007901425E51CF0E51DA3F090000AC006C005C0031215
:20372100332DAA82AF83D003D005D0067E00EB2AFAEE3FFFEA24D0FAEF34FFFF90145AEAB2
:20374100F0EFA3F0D007D006D00502365B90145EE0FBBB2E2FC005C006C00790145AE0FAC2
:20376100A3E0FFBAFF05BFFF028009D007D006D00502365BD007D006D00590145AE4F0A3B3
:20378100F002365BBB61004014EB2485400F90145E74DF5BF09014347401F0800590143418
:2037A100E4F090145EE0FBBB20028075BB2B028067BB2D028059BB4202806FBB4302807C09
:2037C100BB4403023A45BB4603023A6BBB480302365BBB4903023A45BB4A0302365BBB4CF7
:2037E100028050BB4F03023A53BB50030239B3BB53028077BB540302365BBB5503023A5B08
:20380100BB5803023A63BB5A0302365B023A7390144E7401F002365B9014507401F002361D
:203821005B9014517401F002365B9014537401F002365B9014547401F002365B901453E089
:20384100600E90144BE014F9F090145EE7F0800F90144BE024FEFFF08F0190145EE7F090EC
:20386100145EE0F5821234E1023A8290144BE024FDFFF08F018705098706098707191990AF
:20388100143AEDF0EEA3F0EFA3F08D828E838FF0123EC385821C85831D90145AE0FAA3E0A4
:2038A100FDBAFF0DBDFF0A90145AE51CF0E51DA3F090144EE0704B901458E0FAA3E0FDC354
:2038C100E51C9AE51D9D503A901458EAC3951CF0ED951DA3F0901458E0FAA3E0FD8A068D34
:2038E100071ABAFF011DEE4F6010758220C005C0021234E1D002D00580E3901458EAF0ED90
:20390100A3F090145AE0F51FA3E0F52090143AE0FAA3E0FDA3E0FF8A828D838FF0123EDB09
:20392100F51E603CC3E4951F74808520F063F08095F0502C151F74FFB51F021520851E8248
:203941001234E190143AE0FAA3E0FDA3E0FF0ABA00010D90143AEAF0EDA3F0EFA3F080ACCD
:2039610090144EE07003023A82901458E0FEA3E0FFC3E51C9EE51D9F4003023A82901458E7
:20398100EEC3951CF0EF951DA3F0901458E0FEA3E0FF8E028F051EBEFF011FEA4D70030279
:2039A1003A7A758220C007C0061234E1D006D00780E090144BE024FDFDF08D0187210987D7
:2039C10022098723191990143AE521F0E522A3F0E523A3F090143CE0FDBD800040089014F0
:2039E1005E7443F08020BD6000400890145E7450F08013BD4000400890145E7449F08006F9
:203A010090145E7458F090145EE0FDF582C0051234E175823A1234E17582301234E1758208
:203A2100781234E1D005BD4902800EBD5002800990143BE0F58212353C90143AE0F58212E3
:203A4100353C803D9014527401F0901457740AF0802F9014577408F08027901457740AF04D
:203A6100801F9014577410F080179014557401F0800F8B821234E18008901458EEF0EFA38B
:203A8100F0901455E0607190144BE024FCFFF08F01870309870509870609870719191990F6
:203AA100143AEBF0EDA3F0EEA3F0EFA3F090143A7463F07446A3F07480A3F090143AE0F52D
:203AC10021A3E0F522A3E0F52374012521FAE43522FBAF2390143AEAF0EBA3F0EFA3F08595
:203AE10021828522838523F0123EDBFF70030235ED8F821234E180C3901457E0700302359F
:203B0100ED901453E0604790144BE014F9F087077E007D007B0090143AEFF0EEA3F0EDA39B
:203B2100F0EBA3F0901452E06003023BC590143AE0FBA3E0A3E0A3E07D007E007F0090147B
:203B41003AEBF0EDA3F0EEA3F0EFA3F08076901454E0602890144BE024FCFFF08F0187037E
:203B610009870509870609870719191990143AEBF0EDA3F0EEA3F0EFA3F0804890144BE064
:203B810024FEFFF08F01870609870719EF3395E0FDFB90143AEEF0EFA3F0EDA3F0EBA3F07B
:203BA100901452E0701E90143AE0FBA3E0FDA3E0A3E07E007F0090143AEBF0EDA3F0EEA39A
:203BC100F0EFA3F0901452E0604190143AE0FBA3E0FDA3E0FEA3E0FF30E72B90143AE0FBC4
:203BE100A3E0FDA3E0FEA3E0FFC3E49BFBE49DFDE49EFEE49FFF90143AEBF0EDA3F0EEA3BA
:203C0100F0EFA3F08005901452E4F09014567401F0901457E0F51F752464752514E4F51CF4
:203C2100F51D90143EE4F0851F82123558901456E0703390143EE0C454F0F52190143EE0D7
:203C4100C4540F4521F521852482852583E0FFE5214207852482852583EFF0152474FFB5A2
:203C610024021525800C90143EE0FF852482852583F0051CE4B51C02051D901456E0B401C5
:203C810000E433F090143AE0FAA3E0FBA3E0FEA3E0FFEA4B4E4F708A901465E524F0E5250B
:203CA100A3F090145CE51CF0E51DA3F0901458E0F5F0A3E045F070099014587401F0E4A310
:203CC100F090144FE0FFE0704790144EE07041851C24851D25901458E0FAA3E0FBC007AFB1
:203CE100240F8F067F00C3EE9AEF9BD0075019758220C007C003C0021234E1D002D003D068
:203D0100071ABAFF011B80D5901458EAF0EBA3F0901452E0602075822DC0071234E1D007C4
:203D2100901458E024FFFDA3E034FFFE901458EDF0EEA3F0805690145CE0F5F0A3E045F025
:203D4100604A901450E0602075822BC0071234E1D007901458E024FFFDA3E034FFFE901429
:203D610058EDF0EEA3F08024901451E0601E758220C0071234E1D007901458E024FFFDA31A
:203D8100E034FFFE901458EDF0EEA3F090144EE0704890145CE0F524A3E0F525901458E0BB
:203DA100FAA3E0FBC0078A068B071ABAFF011BC3E5249EE5259FD0075053EF60067D307EA5
:203DC1000080047D207E008D82C007C003C0021234E1D002D003D00780CA901458E0FEA37E
:203DE100E0FF90145CE0F524A3E0F525C3E5249EE5259F500F901458EEC39524F0EF9525DC
:203E0100A3F08011901458E4F0A3F08008901458EAF0EBA3F0901465E0FEA3E0FF90145CD5
:203E2100E0F524A3E0F525AA24AD25152474FFB524021525EA4D6045901456E0B40100E43B
:203E410033F0901456E070140EBE00010F8E828F83E0C4540FFD90143EF0800E8E828F835C
:203E6100E0FD53050F90143EEDF090143EE0F582C007C00612351CD006D00780AA90144E4C
:203E8100E070030235ED901458E0FEA3E0FF8E038F051EBEFF011FEB4D70030235ED758268
:203EA10020C007C0061234E1D006D00780E08C821234E10235ED90143FE0FEA3E08E82F57E
:023EC10083225A
:0B4663003C4E4F20464C4F41543E009F
:183EC300AA82AB83123EDB6003A380F8C3E5829AF582E5839BF583220C
:0D200600758126122062E58260030220032E
:1C3EDB0020F71430F6148883A88220F507E6A88375830022E280F7E49322E022F6
:00000001FF
