:03000000020006F5
:03005F0002000399
:0300030002006296
:2000620012006C7F008F8302007A10980280FBAE997F008E828F8322AF83E582900000F0AB
:17008200EFA3F03099FD900000E0FEA3E0FF8E99C2998E828F832269
:06003500E478FFF6D8FD9F
:200013007900E94400601B7A0090009D780275A000E493F2A308B8000205A0D9F4DAF275F5
:02003300A0FF2C
:20003B007800E84400600A790075A000E4F309D8FC7802E84400600C7901900000E4F0A3C2
:04005B00D8FCD9FAFA
:0D000600758107120099E582600302000376
:04009900758200224A
:00000001FF
